{
  "contractName": "P2PTempInsuranceFactory",
  "abi": [
    {
      "constant": true,
      "inputs": [
        {
          "name": "_address",
          "type": "address"
        }
      ],
      "name": "getCreated",
      "outputs": [
        {
          "name": "",
          "type": "address[]"
        }
      ],
      "payable": false,
      "stateMutability": "view",
      "type": "function"
    },
    {
      "constant": true,
      "inputs": [
        {
          "name": "",
          "type": "address"
        },
        {
          "name": "",
          "type": "uint256"
        }
      ],
      "name": "created",
      "outputs": [
        {
          "name": "",
          "type": "address"
        }
      ],
      "payable": false,
      "stateMutability": "view",
      "type": "function"
    },
    {
      "constant": false,
      "inputs": [
        {
          "name": "_payout",
          "type": "uint256"
        },
        {
          "name": "_temperature",
          "type": "int32"
        },
        {
          "name": "_isTempBelow",
          "type": "bool"
        },
        {
          "name": "_startTime",
          "type": "uint256"
        },
        {
          "name": "_endTime",
          "type": "uint256"
        },
        {
          "name": "_sensorContract",
          "type": "address"
        }
      ],
      "name": "createP2PTempInsurance",
      "outputs": [
        {
          "name": "",
          "type": "address"
        }
      ],
      "payable": true,
      "stateMutability": "payable",
      "type": "function"
    },
    {
      "constant": true,
      "inputs": [
        {
          "name": "",
          "type": "address"
        }
      ],
      "name": "isP2PTempInsurance",
      "outputs": [
        {
          "name": "",
          "type": "bool"
        }
      ],
      "payable": false,
      "stateMutability": "view",
      "type": "function"
    },
    {
      "inputs": [],
      "payable": false,
      "stateMutability": "nonpayable",
      "type": "constructor"
    },
    {
      "anonymous": false,
      "inputs": [
        {
          "indexed": true,
          "name": "sender",
          "type": "address"
        },
        {
          "indexed": true,
          "name": "instantiation",
          "type": "address"
        }
      ],
      "name": "ContractInstantiation",
      "type": "event"
    }
  ],
  "bytecode": "0x6060604052341561000f57600080fd5b6119388061001e6000396000f300606060405260043610610062576000357c0100000000000000000000000000000000000000000000000000000000900463ffffffff1680630ef98992146100675780635f8dead3146100f55780637aa6888614610177578063e212801714610217575b600080fd5b341561007257600080fd5b61009e600480803573ffffffffffffffffffffffffffffffffffffffff16906020019091905050610268565b6040518080602001828103825283818151815260200191508051906020019060200280838360005b838110156100e15780820151818401526020810190506100c6565b505050509050019250505060405180910390f35b341561010057600080fd5b610135600480803573ffffffffffffffffffffffffffffffffffffffff1690602001909190803590602001909190505061033a565b604051808273ffffffffffffffffffffffffffffffffffffffff1673ffffffffffffffffffffffffffffffffffffffff16815260200191505060405180910390f35b6101d5600480803590602001909190803560030b906020019091908035151590602001909190803590602001909190803590602001909190803573ffffffffffffffffffffffffffffffffffffffff16906020019091905050610388565b604051808273ffffffffffffffffffffffffffffffffffffffff1673ffffffffffffffffffffffffffffffffffffffff16815260200191505060405180910390f35b341561022257600080fd5b61024e600480803573ffffffffffffffffffffffffffffffffffffffff16906020019091905050610574565b604051808215151515815260200191505060405180910390f35b610270610594565b6000808373ffffffffffffffffffffffffffffffffffffffff1673ffffffffffffffffffffffffffffffffffffffff16815260200190815260200160002080548060200260200160405190810160405280929190818152602001828054801561032e57602002820191906000526020600020905b8160009054906101000a900473ffffffffffffffffffffffffffffffffffffffff1673ffffffffffffffffffffffffffffffffffffffff16815260200190600101908083116102e4575b50505050509050919050565b60006020528160005260406000208181548110151561035557fe5b90600052602060002090016000915091509054906101000a900473ffffffffffffffffffffffffffffffffffffffff1681565b6000803488888888888861039a6105a8565b808781526020018660030b60030b8152602001851515151581526020018481526020018381526020018273ffffffffffffffffffffffffffffffffffffffff1673ffffffffffffffffffffffffffffffffffffffff16815260200196505050505050506040518091039082f080151561041257600080fd5b905090506000803373ffffffffffffffffffffffffffffffffffffffff1673ffffffffffffffffffffffffffffffffffffffff168152602001908152602001600020805480600101828161046691906105b8565b9160005260206000209001600083909190916101000a81548173ffffffffffffffffffffffffffffffffffffffff021916908373ffffffffffffffffffffffffffffffffffffffff160217905550508073ffffffffffffffffffffffffffffffffffffffff163373ffffffffffffffffffffffffffffffffffffffff167f4fb057ad4a26ed17a57957fa69c306f11987596069b89521c511fc9a894e616160405160405180910390a360018060008373ffffffffffffffffffffffffffffffffffffffff1673ffffffffffffffffffffffffffffffffffffffff16815260200190815260200160002060006101000a81548160ff021916908315150217905550809150509695505050505050565b60016020528060005260406000206000915054906101000a900460ff1681565b602060405190810160405280600081525090565b6040516113038061060a83390190565b8154818355818115116105df578183600052602060002091820191016105de91906105e4565b5b505050565b61060691905b808211156106025760008160009055506001016105ea565b5090565b905600606060405260405160c080611303833981016040528080519060200190919080519060200190919080519060200190919080519060200190919080519060200190919080519060200190919050506000336000806101000a81548173ffffffffffffffffffffffffffffffffffffffff021916908373ffffffffffffffffffffffffffffffffffffffff1602179055506005546006541115156100a157600080fd5b8660048190555085600760006101000a81548163ffffffff021916908360030b63ffffffff16021790555084600760046101000a81548160ff021916908315150217905550836005819055508260068190555081600760056101000a81548173ffffffffffffffffffffffffffffffffffffffff021916908373ffffffffffffffffffffffffffffffffffffffff16021790555060646007340281151561014457fe5b0490508034036002819055600181905550731d4039ac31bfe1120c392cb6c839a3d422f742c873ffffffffffffffffffffffffffffffffffffffff166108fc829081150290604051600060405180830381858888f1935050505015156101a957600080fd5b6000600a60006101000a81548160ff0219169083151502179055600a60016101000a81548160ff02191690831515021790555050505050505050611111806101f26000396000f300606060405260043610610128576000357c0100000000000000000000000000000000000000000000000000000000900463ffffffff16806315b634831461012d5780632f695ba61461015a5780633197cbb61461018357806337271cc7146101ac578063454a2ab3146101d95780634cff4c7f146101f157806356e4bc1f1461021a57806363bd1d4a146102475780636709c18b1461027057806378e979251461029d5780638aa34282146102c65780638da5cb5b1461031b578063a0f6f56f14610370578063adccea1214610399578063da173bb8146103c8578063e1349333146103f5578063f23c138e1461044a578063f2fde38b14610477578063f47ad507146104b0578063f48bda9814610505578063f760a9d01461052e578063faad53df14610572575b600080fd5b341561013857600080fd5b61014061059b565b604051808215151515815260200191505060405180910390f35b341561016557600080fd5b61016d610750565b6040518082815260200191505060405180910390f35b341561018e57600080fd5b610196610755565b6040518082815260200191505060405180910390f35b34156101b757600080fd5b6101bf61075b565b604051808215151515815260200191505060405180910390f35b6101ef60048080359060200190919050506108d8565b005b34156101fc57600080fd5b610204610abb565b6040518082815260200191505060405180910390f35b341561022557600080fd5b61022d610ac1565b604051808215151515815260200191505060405180910390f35b341561025257600080fd5b61025a610ad4565b6040518082815260200191505060405180910390f35b341561027b57600080fd5b610283610ada565b604051808215151515815260200191505060405180910390f35b34156102a857600080fd5b6102b0610c88565b6040518082815260200191505060405180910390f35b34156102d157600080fd5b6102d9610c8e565b604051808273ffffffffffffffffffffffffffffffffffffffff1673ffffffffffffffffffffffffffffffffffffffff16815260200191505060405180910390f35b341561032657600080fd5b61032e610cb4565b604051808273ffffffffffffffffffffffffffffffffffffffff1673ffffffffffffffffffffffffffffffffffffffff16815260200191505060405180910390f35b341561037b57600080fd5b610383610cd9565b6040518082815260200191505060405180910390f35b34156103a457600080fd5b6103ac610cdf565b604051808260030b60030b815260200191505060405180910390f35b34156103d357600080fd5b6103db610cf2565b604051808215151515815260200191505060405180910390f35b341561040057600080fd5b610408610d05565b604051808273ffffffffffffffffffffffffffffffffffffffff1673ffffffffffffffffffffffffffffffffffffffff16815260200191505060405180910390f35b341561045557600080fd5b61045d610d2b565b604051808215151515815260200191505060405180910390f35b341561048257600080fd5b6104ae600480803573ffffffffffffffffffffffffffffffffffffffff16906020019091905050610d3e565b005b34156104bb57600080fd5b6104c3610ddc565b604051808273ffffffffffffffffffffffffffffffffffffffff1673ffffffffffffffffffffffffffffffffffffffff16815260200191505060405180910390f35b341561051057600080fd5b610518610df4565b6040518082815260200191505060405180910390f35b341561053957600080fd5b6105586004808035906020019091908035906020019091905050610dfa565b604051808215151515815260200191505060405180910390f35b341561057d57600080fd5b610585610fd8565b6040518082815260200191505060405180910390f35b600080600654421115156105ae57600080fd5b600a60009054906101000a900460ff161515156105ca57600080fd5b6000600860009054906101000a900473ffffffffffffffffffffffffffffffffffffffff1673ffffffffffffffffffffffffffffffffffffffff161415151561061257600080fd5b600a60019054906101000a900460ff1615610630576000915061074c565b600191506001600a60016101000a81548160ff021916908315150217905550600254600454019050600860009054906101000a900473ffffffffffffffffffffffffffffffffffffffff1673ffffffffffffffffffffffffffffffffffffffff166108fc829081150290604051600060405180830381858888f1935050505015156106d4576000915081600a60016101000a81548160ff0219169083151502179055505b811561074b57600860009054906101000a900473ffffffffffffffffffffffffffffffffffffffff1673ffffffffffffffffffffffffffffffffffffffff167fdc9147b6b67f00669ab9ee650cdfdc8067c2a0ced2fa3d34d901b26755cfe17b826040518082815260200191505060405180910390a25b5b5090565b600781565b60065481565b60008060019150600960003373ffffffffffffffffffffffffffffffffffffffff1673ffffffffffffffffffffffffffffffffffffffff16815260200190815260200160002054905060008114156107b5578191506108d4565b6000600960003373ffffffffffffffffffffffffffffffffffffffff1673ffffffffffffffffffffffffffffffffffffffff168152602001908152602001600020819055503373ffffffffffffffffffffffffffffffffffffffff166108fc829081150290604051600060405180830381858888f19350505050151561087e5780600960003373ffffffffffffffffffffffffffffffffffffffff1673ffffffffffffffffffffffffffffffffffffffff16815260200190815260200160002081905550600091505b81156108d3573373ffffffffffffffffffffffffffffffffffffffff167f03f0427e8bcfdf5f69217150cf160ebe2dac5fa607336fd7643bfd61a9019080826040518082815260200191505060405180910390a25b5b5090565b6000600860009054906101000a900473ffffffffffffffffffffffffffffffffffffffff1673ffffffffffffffffffffffffffffffffffffffff161461092d576002548110151561092857600080fd5b61093f565b600254811115151561093e57600080fd5b5b6005544210151561094f57600080fd5b6004543414151561095f57600080fd5b6000600860009054906101000a900473ffffffffffffffffffffffffffffffffffffffff1673ffffffffffffffffffffffffffffffffffffffff161415156109f157600454600960003373ffffffffffffffffffffffffffffffffffffffff1673ffffffffffffffffffffffffffffffffffffffff168152602001908152602001600020600082825401925050819055505b8060028190555033600860006101000a81548173ffffffffffffffffffffffffffffffffffffffff021916908373ffffffffffffffffffffffffffffffffffffffff16021790555060025460015403600381905550600860009054906101000a900473ffffffffffffffffffffffffffffffffffffffff1673ffffffffffffffffffffffffffffffffffffffff167fe684a55f31b79eca403df938249029212a5925ec6be8012e099b45bc1019e5d26002546040518082815260200191505060405180910390a250565b60035481565b600a60009054906101000a900460ff1681565b60045481565b6000806005544210151515610aee57600080fd5b600191506000600860009054906101000a900473ffffffffffffffffffffffffffffffffffffffff1673ffffffffffffffffffffffffffffffffffffffff161415610bbe5760025490506000811415610b4957819150610c84565b60006002819055506000809054906101000a900473ffffffffffffffffffffffffffffffffffffffff1673ffffffffffffffffffffffffffffffffffffffff166108fc829081150290604051600060405180830381858888f193505050501515610bb95780600281905550600091505b610c45565b60035490506000811415610bd457819150610c84565b60006003819055506000809054906101000a900473ffffffffffffffffffffffffffffffffffffffff1673ffffffffffffffffffffffffffffffffffffffff166108fc829081150290604051600060405180830381858888f193505050501515610c445780600381905550600091505b5b8115610c83577fd74b323c267cb08a95020c01e1bd35563447029e9a798f5ed6a85a7d57812220816040518082815260200191505060405180910390a15b5b5090565b60055481565b600760059054906101000a900473ffffffffffffffffffffffffffffffffffffffff1681565b6000809054906101000a900473ffffffffffffffffffffffffffffffffffffffff1681565b60025481565b600760009054906101000a900460030b81565b600a60019054906101000a900460ff1681565b600860009054906101000a900473ffffffffffffffffffffffffffffffffffffffff1681565b600760049054906101000a900460ff1681565b6000809054906101000a900473ffffffffffffffffffffffffffffffffffffffff1673ffffffffffffffffffffffffffffffffffffffff163373ffffffffffffffffffffffffffffffffffffffff16141515610d9957600080fd5b806000806101000a81548173ffffffffffffffffffffffffffffffffffffffff021916908373ffffffffffffffffffffffffffffffffffffffff16021790555050565b731d4039ac31bfe1120c392cb6c839a3d422f742c881565b60015481565b600080600080600080600860009054906101000a900473ffffffffffffffffffffffffffffffffffffffff1673ffffffffffffffffffffffffffffffffffffffff161415610e4b5760009450610fce565b60009450600093508692505b8583111515610fcd57600760059054906101000a900473ffffffffffffffffffffffffffffffffffffffff1673ffffffffffffffffffffffffffffffffffffffff16630178fe3f846000604051604001526040518263ffffffff167c0100000000000000000000000000000000000000000000000000000000028152600401808281526020019150506040805180830381600087803b1515610ef857600080fd5b6102c65a03f11515610f0957600080fd5b50505060405180519060200180519050809250819350505060055482108015610f33575060065482115b15610f3d57610fc2565b600760049054906101000a900460ff1615610f8157600760009054906101000a900460030b60030b8160030b12610f75576000610f7a565b600184015b9350610fac565b600760009054906101000a900460030b60030b8160030b13610fa4576000610fa9565b600184015b93505b600384101515610fc157610fbe610fdd565b94505b5b826001019250610e57565b5b5050505092915050565b600381565b600080600a60009054906101000a900460ff1615610ffe57600091506110e1565b600191506001600a60006101000a81548160ff0219169083151502179055506002549050600454810190506000809054906101000a900473ffffffffffffffffffffffffffffffffffffffff1673ffffffffffffffffffffffffffffffffffffffff166108fc829081150290604051600060405180830381858888f1935050505015156110a2576000600a60006101000a81548160ff021916908315150217905591505b81156110e0577fee33c438854ea5a0eeecfded0690ebd18ed0708db7a2d2429717b71bb1ceeb33816040518082815260200191505060405180910390a15b5b50905600a165627a7a7230582056f532aab03da91590b245e7c5b88eceb3b7e202fdb8552517a4335fa7920b520029a165627a7a72305820e6fe3ca5fa73022585633b73eb542f819db226a2759c443bd9c264a35d3e90150029",
  "source": "pragma solidity ^0.4.18;\n\nimport './P2PTempInsurance.sol';\n\ncontract P2PTempInsuranceFactory {\n\n    mapping(address => address[]) public created;\n    mapping(address => bool) public isP2PTempInsurance;\n\n    event ContractInstantiation(address indexed sender, address indexed instantiation);\n\n    function P2PTempInsuranceFactory() public  {}\n\n    function createP2PTempInsurance(\n        uint256 _payout,\n        int32 _temperature, \n        bool _isTempBelow, \n        uint256 _startTime, \n        uint256 _endTime, \n        address _sensorContract\n    ) public payable returns (address) {\n        P2PTempInsurance newContract = (new P2PTempInsurance).value(msg.value)(\n            _payout,\n            _temperature, \n            _isTempBelow, \n            _startTime, \n            _endTime, \n            _sensorContract\n         );\n        created[msg.sender].push(address(newContract));\n        ContractInstantiation(msg.sender, address(newContract));\n        \n        isP2PTempInsurance[address(newContract)] = true;\n        return address(newContract);\n    }\n\n    function getCreated(address _address) view public returns (address[]) {\n        return created[_address];\n    }\n}\n",
  "sourcePath": "/Users/a/insurtech/truffle/contracts/P2PTempInsuranceFactory.sol",
  "compiler": {
    "name": "solc",
    "version": "0.4.18+commit.9cf6e910.Emscripten.clang"
  },
  "schemaVersion": "1.0.1",
  "updatedAt": "2018-01-26T19:24:29.164Z"
}