{
  "contractName": "P2PTempInsurance",
  "abi": [
    {
      "constant": false,
      "inputs": [],
      "name": "withdrawExpired",
      "outputs": [
        {
          "name": "success",
          "type": "bool"
        }
      ],
      "payable": false,
      "stateMutability": "nonpayable",
      "type": "function"
    },
    {
      "constant": true,
      "inputs": [],
      "name": "FEES_PERCENTAGE",
      "outputs": [
        {
          "name": "",
          "type": "uint256"
        }
      ],
      "payable": false,
      "stateMutability": "view",
      "type": "function"
    },
    {
      "constant": true,
      "inputs": [],
      "name": "endTime",
      "outputs": [
        {
          "name": "",
          "type": "uint256"
        }
      ],
      "payable": false,
      "stateMutability": "view",
      "type": "function"
    },
    {
      "constant": false,
      "inputs": [],
      "name": "withdrawBid",
      "outputs": [
        {
          "name": "success",
          "type": "bool"
        }
      ],
      "payable": false,
      "stateMutability": "nonpayable",
      "type": "function"
    },
    {
      "constant": false,
      "inputs": [
        {
          "name": "premium",
          "type": "uint256"
        }
      ],
      "name": "bid",
      "outputs": [],
      "payable": true,
      "stateMutability": "payable",
      "type": "function"
    },
    {
      "constant": true,
      "inputs": [],
      "name": "paybackPremium",
      "outputs": [
        {
          "name": "",
          "type": "uint256"
        }
      ],
      "payable": false,
      "stateMutability": "view",
      "type": "function"
    },
    {
      "constant": true,
      "inputs": [],
      "name": "payed",
      "outputs": [
        {
          "name": "",
          "type": "bool"
        }
      ],
      "payable": false,
      "stateMutability": "view",
      "type": "function"
    },
    {
      "constant": true,
      "inputs": [],
      "name": "payout",
      "outputs": [
        {
          "name": "",
          "type": "uint256"
        }
      ],
      "payable": false,
      "stateMutability": "view",
      "type": "function"
    },
    {
      "constant": false,
      "inputs": [],
      "name": "withdrawPremium",
      "outputs": [
        {
          "name": "success",
          "type": "bool"
        }
      ],
      "payable": false,
      "stateMutability": "nonpayable",
      "type": "function"
    },
    {
      "constant": true,
      "inputs": [],
      "name": "startTime",
      "outputs": [
        {
          "name": "",
          "type": "uint256"
        }
      ],
      "payable": false,
      "stateMutability": "view",
      "type": "function"
    },
    {
      "constant": true,
      "inputs": [],
      "name": "sensorContract",
      "outputs": [
        {
          "name": "",
          "type": "address"
        }
      ],
      "payable": false,
      "stateMutability": "view",
      "type": "function"
    },
    {
      "constant": true,
      "inputs": [],
      "name": "owner",
      "outputs": [
        {
          "name": "",
          "type": "address"
        }
      ],
      "payable": false,
      "stateMutability": "view",
      "type": "function"
    },
    {
      "constant": true,
      "inputs": [],
      "name": "lowestPremium",
      "outputs": [
        {
          "name": "",
          "type": "uint256"
        }
      ],
      "payable": false,
      "stateMutability": "view",
      "type": "function"
    },
    {
      "constant": true,
      "inputs": [],
      "name": "temperature",
      "outputs": [
        {
          "name": "",
          "type": "int32"
        }
      ],
      "payable": false,
      "stateMutability": "view",
      "type": "function"
    },
    {
      "constant": true,
      "inputs": [],
      "name": "expiredWithdrawn",
      "outputs": [
        {
          "name": "",
          "type": "bool"
        }
      ],
      "payable": false,
      "stateMutability": "view",
      "type": "function"
    },
    {
      "constant": true,
      "inputs": [],
      "name": "lowestBidder",
      "outputs": [
        {
          "name": "",
          "type": "address"
        }
      ],
      "payable": false,
      "stateMutability": "view",
      "type": "function"
    },
    {
      "constant": true,
      "inputs": [],
      "name": "isTempBelow",
      "outputs": [
        {
          "name": "",
          "type": "bool"
        }
      ],
      "payable": false,
      "stateMutability": "view",
      "type": "function"
    },
    {
      "constant": false,
      "inputs": [
        {
          "name": "newOwner",
          "type": "address"
        }
      ],
      "name": "transferOwnership",
      "outputs": [],
      "payable": false,
      "stateMutability": "nonpayable",
      "type": "function"
    },
    {
      "constant": true,
      "inputs": [],
      "name": "FEES_RECIPIENT",
      "outputs": [
        {
          "name": "",
          "type": "address"
        }
      ],
      "payable": false,
      "stateMutability": "view",
      "type": "function"
    },
    {
      "constant": true,
      "inputs": [],
      "name": "startPremium",
      "outputs": [
        {
          "name": "",
          "type": "uint256"
        }
      ],
      "payable": false,
      "stateMutability": "view",
      "type": "function"
    },
    {
      "constant": false,
      "inputs": [
        {
          "name": "from",
          "type": "uint256"
        },
        {
          "name": "to",
          "type": "uint256"
        }
      ],
      "name": "checkConditions",
      "outputs": [
        {
          "name": "_payed",
          "type": "bool"
        }
      ],
      "payable": false,
      "stateMutability": "nonpayable",
      "type": "function"
    },
    {
      "constant": true,
      "inputs": [],
      "name": "REPEATED_INFRACTIONS",
      "outputs": [
        {
          "name": "",
          "type": "uint256"
        }
      ],
      "payable": false,
      "stateMutability": "view",
      "type": "function"
    },
    {
      "inputs": [
        {
          "name": "_payout",
          "type": "uint256"
        },
        {
          "name": "_temperature",
          "type": "int32"
        },
        {
          "name": "_isTempBelow",
          "type": "bool"
        },
        {
          "name": "_startTime",
          "type": "uint256"
        },
        {
          "name": "_endTime",
          "type": "uint256"
        },
        {
          "name": "_sensorContract",
          "type": "address"
        }
      ],
      "payable": true,
      "stateMutability": "payable",
      "type": "constructor"
    },
    {
      "anonymous": false,
      "inputs": [
        {
          "indexed": true,
          "name": "_bidder",
          "type": "address"
        },
        {
          "indexed": false,
          "name": "_value",
          "type": "uint256"
        }
      ],
      "name": "Bid",
      "type": "event"
    },
    {
      "anonymous": false,
      "inputs": [
        {
          "indexed": false,
          "name": "_value",
          "type": "uint256"
        }
      ],
      "name": "PremiumWithdrawn",
      "type": "event"
    },
    {
      "anonymous": false,
      "inputs": [
        {
          "indexed": true,
          "name": "_bidder",
          "type": "address"
        },
        {
          "indexed": false,
          "name": "_value",
          "type": "uint256"
        }
      ],
      "name": "BidWithdrawn",
      "type": "event"
    },
    {
      "anonymous": false,
      "inputs": [
        {
          "indexed": true,
          "name": "_address",
          "type": "address"
        },
        {
          "indexed": false,
          "name": "_value",
          "type": "uint256"
        }
      ],
      "name": "ExpiredWithdrawn",
      "type": "event"
    },
    {
      "anonymous": false,
      "inputs": [
        {
          "indexed": false,
          "name": "_value",
          "type": "uint256"
        }
      ],
      "name": "PayedOut",
      "type": "event"
    }
  ],
  "bytecode": "0x606060405260405160c080611303833981016040528080519060200190919080519060200190919080519060200190919080519060200190919080519060200190919080519060200190919050506000336000806101000a81548173ffffffffffffffffffffffffffffffffffffffff021916908373ffffffffffffffffffffffffffffffffffffffff1602179055506005546006541115156100a157600080fd5b8660048190555085600760006101000a81548163ffffffff021916908360030b63ffffffff16021790555084600760046101000a81548160ff021916908315150217905550836005819055508260068190555081600760056101000a81548173ffffffffffffffffffffffffffffffffffffffff021916908373ffffffffffffffffffffffffffffffffffffffff16021790555060646007340281151561014457fe5b0490508034036002819055600181905550731d4039ac31bfe1120c392cb6c839a3d422f742c873ffffffffffffffffffffffffffffffffffffffff166108fc829081150290604051600060405180830381858888f1935050505015156101a957600080fd5b6000600a60006101000a81548160ff0219169083151502179055600a60016101000a81548160ff02191690831515021790555050505050505050611111806101f26000396000f300606060405260043610610128576000357c0100000000000000000000000000000000000000000000000000000000900463ffffffff16806315b634831461012d5780632f695ba61461015a5780633197cbb61461018357806337271cc7146101ac578063454a2ab3146101d95780634cff4c7f146101f157806356e4bc1f1461021a57806363bd1d4a146102475780636709c18b1461027057806378e979251461029d5780638aa34282146102c65780638da5cb5b1461031b578063a0f6f56f14610370578063adccea1214610399578063da173bb8146103c8578063e1349333146103f5578063f23c138e1461044a578063f2fde38b14610477578063f47ad507146104b0578063f48bda9814610505578063f760a9d01461052e578063faad53df14610572575b600080fd5b341561013857600080fd5b61014061059b565b604051808215151515815260200191505060405180910390f35b341561016557600080fd5b61016d610750565b6040518082815260200191505060405180910390f35b341561018e57600080fd5b610196610755565b6040518082815260200191505060405180910390f35b34156101b757600080fd5b6101bf61075b565b604051808215151515815260200191505060405180910390f35b6101ef60048080359060200190919050506108d8565b005b34156101fc57600080fd5b610204610abb565b6040518082815260200191505060405180910390f35b341561022557600080fd5b61022d610ac1565b604051808215151515815260200191505060405180910390f35b341561025257600080fd5b61025a610ad4565b6040518082815260200191505060405180910390f35b341561027b57600080fd5b610283610ada565b604051808215151515815260200191505060405180910390f35b34156102a857600080fd5b6102b0610c88565b6040518082815260200191505060405180910390f35b34156102d157600080fd5b6102d9610c8e565b604051808273ffffffffffffffffffffffffffffffffffffffff1673ffffffffffffffffffffffffffffffffffffffff16815260200191505060405180910390f35b341561032657600080fd5b61032e610cb4565b604051808273ffffffffffffffffffffffffffffffffffffffff1673ffffffffffffffffffffffffffffffffffffffff16815260200191505060405180910390f35b341561037b57600080fd5b610383610cd9565b6040518082815260200191505060405180910390f35b34156103a457600080fd5b6103ac610cdf565b604051808260030b60030b815260200191505060405180910390f35b34156103d357600080fd5b6103db610cf2565b604051808215151515815260200191505060405180910390f35b341561040057600080fd5b610408610d05565b604051808273ffffffffffffffffffffffffffffffffffffffff1673ffffffffffffffffffffffffffffffffffffffff16815260200191505060405180910390f35b341561045557600080fd5b61045d610d2b565b604051808215151515815260200191505060405180910390f35b341561048257600080fd5b6104ae600480803573ffffffffffffffffffffffffffffffffffffffff16906020019091905050610d3e565b005b34156104bb57600080fd5b6104c3610ddc565b604051808273ffffffffffffffffffffffffffffffffffffffff1673ffffffffffffffffffffffffffffffffffffffff16815260200191505060405180910390f35b341561051057600080fd5b610518610df4565b6040518082815260200191505060405180910390f35b341561053957600080fd5b6105586004808035906020019091908035906020019091905050610dfa565b604051808215151515815260200191505060405180910390f35b341561057d57600080fd5b610585610fd8565b6040518082815260200191505060405180910390f35b600080600654421115156105ae57600080fd5b600a60009054906101000a900460ff161515156105ca57600080fd5b6000600860009054906101000a900473ffffffffffffffffffffffffffffffffffffffff1673ffffffffffffffffffffffffffffffffffffffff161415151561061257600080fd5b600a60019054906101000a900460ff1615610630576000915061074c565b600191506001600a60016101000a81548160ff021916908315150217905550600254600454019050600860009054906101000a900473ffffffffffffffffffffffffffffffffffffffff1673ffffffffffffffffffffffffffffffffffffffff166108fc829081150290604051600060405180830381858888f1935050505015156106d4576000915081600a60016101000a81548160ff0219169083151502179055505b811561074b57600860009054906101000a900473ffffffffffffffffffffffffffffffffffffffff1673ffffffffffffffffffffffffffffffffffffffff167fdc9147b6b67f00669ab9ee650cdfdc8067c2a0ced2fa3d34d901b26755cfe17b826040518082815260200191505060405180910390a25b5b5090565b600781565b60065481565b60008060019150600960003373ffffffffffffffffffffffffffffffffffffffff1673ffffffffffffffffffffffffffffffffffffffff16815260200190815260200160002054905060008114156107b5578191506108d4565b6000600960003373ffffffffffffffffffffffffffffffffffffffff1673ffffffffffffffffffffffffffffffffffffffff168152602001908152602001600020819055503373ffffffffffffffffffffffffffffffffffffffff166108fc829081150290604051600060405180830381858888f19350505050151561087e5780600960003373ffffffffffffffffffffffffffffffffffffffff1673ffffffffffffffffffffffffffffffffffffffff16815260200190815260200160002081905550600091505b81156108d3573373ffffffffffffffffffffffffffffffffffffffff167f03f0427e8bcfdf5f69217150cf160ebe2dac5fa607336fd7643bfd61a9019080826040518082815260200191505060405180910390a25b5b5090565b6000600860009054906101000a900473ffffffffffffffffffffffffffffffffffffffff1673ffffffffffffffffffffffffffffffffffffffff161461092d576002548110151561092857600080fd5b61093f565b600254811115151561093e57600080fd5b5b6005544210151561094f57600080fd5b6004543414151561095f57600080fd5b6000600860009054906101000a900473ffffffffffffffffffffffffffffffffffffffff1673ffffffffffffffffffffffffffffffffffffffff161415156109f157600454600960003373ffffffffffffffffffffffffffffffffffffffff1673ffffffffffffffffffffffffffffffffffffffff168152602001908152602001600020600082825401925050819055505b8060028190555033600860006101000a81548173ffffffffffffffffffffffffffffffffffffffff021916908373ffffffffffffffffffffffffffffffffffffffff16021790555060025460015403600381905550600860009054906101000a900473ffffffffffffffffffffffffffffffffffffffff1673ffffffffffffffffffffffffffffffffffffffff167fe684a55f31b79eca403df938249029212a5925ec6be8012e099b45bc1019e5d26002546040518082815260200191505060405180910390a250565b60035481565b600a60009054906101000a900460ff1681565b60045481565b6000806005544210151515610aee57600080fd5b600191506000600860009054906101000a900473ffffffffffffffffffffffffffffffffffffffff1673ffffffffffffffffffffffffffffffffffffffff161415610bbe5760025490506000811415610b4957819150610c84565b60006002819055506000809054906101000a900473ffffffffffffffffffffffffffffffffffffffff1673ffffffffffffffffffffffffffffffffffffffff166108fc829081150290604051600060405180830381858888f193505050501515610bb95780600281905550600091505b610c45565b60035490506000811415610bd457819150610c84565b60006003819055506000809054906101000a900473ffffffffffffffffffffffffffffffffffffffff1673ffffffffffffffffffffffffffffffffffffffff166108fc829081150290604051600060405180830381858888f193505050501515610c445780600381905550600091505b5b8115610c83577fd74b323c267cb08a95020c01e1bd35563447029e9a798f5ed6a85a7d57812220816040518082815260200191505060405180910390a15b5b5090565b60055481565b600760059054906101000a900473ffffffffffffffffffffffffffffffffffffffff1681565b6000809054906101000a900473ffffffffffffffffffffffffffffffffffffffff1681565b60025481565b600760009054906101000a900460030b81565b600a60019054906101000a900460ff1681565b600860009054906101000a900473ffffffffffffffffffffffffffffffffffffffff1681565b600760049054906101000a900460ff1681565b6000809054906101000a900473ffffffffffffffffffffffffffffffffffffffff1673ffffffffffffffffffffffffffffffffffffffff163373ffffffffffffffffffffffffffffffffffffffff16141515610d9957600080fd5b806000806101000a81548173ffffffffffffffffffffffffffffffffffffffff021916908373ffffffffffffffffffffffffffffffffffffffff16021790555050565b731d4039ac31bfe1120c392cb6c839a3d422f742c881565b60015481565b600080600080600080600860009054906101000a900473ffffffffffffffffffffffffffffffffffffffff1673ffffffffffffffffffffffffffffffffffffffff161415610e4b5760009450610fce565b60009450600093508692505b8583111515610fcd57600760059054906101000a900473ffffffffffffffffffffffffffffffffffffffff1673ffffffffffffffffffffffffffffffffffffffff16630178fe3f846000604051604001526040518263ffffffff167c0100000000000000000000000000000000000000000000000000000000028152600401808281526020019150506040805180830381600087803b1515610ef857600080fd5b6102c65a03f11515610f0957600080fd5b50505060405180519060200180519050809250819350505060055482108015610f33575060065482115b15610f3d57610fc2565b600760049054906101000a900460ff1615610f8157600760009054906101000a900460030b60030b8160030b12610f75576000610f7a565b600184015b9350610fac565b600760009054906101000a900460030b60030b8160030b13610fa4576000610fa9565b600184015b93505b600384101515610fc157610fbe610fdd565b94505b5b826001019250610e57565b5b5050505092915050565b600381565b600080600a60009054906101000a900460ff1615610ffe57600091506110e1565b600191506001600a60006101000a81548160ff0219169083151502179055506002549050600454810190506000809054906101000a900473ffffffffffffffffffffffffffffffffffffffff1673ffffffffffffffffffffffffffffffffffffffff166108fc829081150290604051600060405180830381858888f1935050505015156110a2576000600a60006101000a81548160ff021916908315150217905591505b81156110e0577fee33c438854ea5a0eeecfded0690ebd18ed0708db7a2d2429717b71bb1ceeb33816040518082815260200191505060405180910390a15b5b50905600a165627a7a7230582056f532aab03da91590b245e7c5b88eceb3b7e202fdb8552517a4335fa7920b520029",
  "source": "pragma solidity ^0.4.18;\n\nimport './ITempSensorable.sol';\nimport './owned.sol';\n\ncontract P2PTempInsurance is owned {\n\n    event Bid(address indexed _bidder, uint256 _value);\n    event PremiumWithdrawn(uint256 _value);\n    event BidWithdrawn(address indexed _bidder, uint256 _value);\n    event ExpiredWithdrawn(address indexed _address, uint256 _value);\n    event PayedOut(uint _value);\n\n\n    uint256 public constant REPEATED_INFRACTIONS = 3;\n    uint256 public constant FEES_PERCENTAGE = 7;\n    address public constant FEES_RECIPIENT = 0x1D4039ac31bFE1120C392cB6C839a3d422F742c8;\n\n    uint256 public startPremium;\n    uint256 public lowestPremium;\n    uint256 public paybackPremium;\n    uint256 public payout;\n    uint256 public startTime;\n    uint256 public endTime;\n    int32 public temperature;\n    bool public isTempBelow;\n    address public sensorContract;\n\n    address public lowestBidder;\n\n    mapping (address=>uint256) returnAmounts;\n\n    bool public payed;\n    bool public expiredWithdrawn;\n    \n    function P2PTempInsurance(\n        uint256 _payout,\n        int32 _temperature, \n        bool _isTempBelow, \n        uint256 _startTime, \n        uint256 _endTime, \n        address _sensorContract\n    ) public payable {\n        require(endTime > startTime);\n\n        payout = _payout;\n        temperature = _temperature;\n        isTempBelow = _isTempBelow;\n        startTime = _startTime;\n        endTime = _endTime;\n        sensorContract = _sensorContract;\n        \n        uint256 fee = msg.value * FEES_PERCENTAGE / 100;\n        startPremium = lowestPremium = msg.value - fee;\n        require(FEES_RECIPIENT.send(fee));\n        expiredWithdrawn = payed = false;\n    }\n\n    function bid(uint256 premium) public payable {\n        lowestBidder == 0x0 ? require(premium <= lowestPremium) : require(premium < lowestPremium);\n        require(now < startTime);\n        require(msg.value == payout);\n        if (lowestBidder != 0x0) returnAmounts[msg.sender] += payout;\n        lowestPremium = premium;\n        lowestBidder = msg.sender;\n        paybackPremium = startPremium - lowestPremium;\n        Bid(lowestBidder, lowestPremium);\n    }\n\n    function withdrawPremium() public returns(bool success) {\n        require(now >= startTime);\n        success = true;\n        uint256 amount;\n        if (lowestBidder == 0x0) {\n            amount = lowestPremium;\n            if (amount == 0) return success;\n            lowestPremium = 0;\n            if (!owner.send(amount)) {\n                lowestPremium = amount;\n                success = false;\n            }\n        } else {\n            amount = paybackPremium;\n            if (amount == 0) return success;\n            paybackPremium = 0;\n            if (!owner.send(amount)) {\n                paybackPremium = amount;\n                success = false;\n            }\n        }\n        if (success) PremiumWithdrawn(amount);\n    }\n\n    function withdrawBid() public returns (bool success) {\n        success = true;\n        uint256 amount = returnAmounts[msg.sender];\n        if (amount == 0) return success;\n        returnAmounts[msg.sender] = 0;\n        if (!msg.sender.send(amount)) {\n            returnAmounts[msg.sender] = amount;\n            success = false;\n        }\n        if (success) BidWithdrawn(msg.sender, amount);\n    }\n\n    function withdrawExpired() public returns (bool success) {\n        require(now > endTime);\n        require(!payed);\n        require(lowestBidder != 0x0);\n        if (expiredWithdrawn) return false;\n        success = true;\n        expiredWithdrawn = true;\n        uint256 amount = payout + lowestPremium;\n        if (!lowestBidder.send(amount)) {\n            expiredWithdrawn = success = false;\n        }\n        if (success) ExpiredWithdrawn(lowestBidder, amount);\n    }\n\n    function checkConditions(uint256 from, uint256 to) public returns (bool _payed) {\n        if (lowestBidder == 0x0) return false;\n        _payed = false;\n        uint256 repeated = 0;\n        for (uint256 i = from; i <= to; ++i) {\n            uint256 time;\n            int32 temp;\n            (time, temp) = ITempSensorable(sensorContract).getData(i);\n            if (time < startTime && time > endTime) continue;\n            if (isTempBelow) \n                repeated = temp < temperature ? repeated + 1 : 0;\n            else\n                repeated = temp > temperature ? repeated + 1 : 0;\n            if (repeated >= REPEATED_INFRACTIONS) {\n                _payed = processPayout();\n            }\n        }\n    }\n\n    function processPayout() internal returns (bool success) {\n        if (payed) return false;\n        success = true;\n        payed = true;\n        uint256 amount = lowestPremium;\n        amount += payout;\n        if (!owner.send(amount)) {\n            success = payed = false;\n        }\n        if (success) PayedOut(amount);\n    }\n}",
  "sourcePath": "/Users/a/insurtech/truffle/contracts/P2PTempInsurance.sol",
  "compiler": {
    "name": "solc",
    "version": "0.4.18+commit.9cf6e910.Emscripten.clang"
  },
  "schemaVersion": "1.0.1",
  "updatedAt": "2018-01-26T19:24:29.162Z"
}