{
  "contractName": "TempSensorContract",
  "abi": [
    {
      "constant": true,
      "inputs": [
        {
          "name": "id",
          "type": "uint256"
        }
      ],
      "name": "getData",
      "outputs": [
        {
          "name": "",
          "type": "uint256"
        },
        {
          "name": "",
          "type": "int32"
        }
      ],
      "payable": false,
      "stateMutability": "view",
      "type": "function"
    },
    {
      "constant": true,
      "inputs": [],
      "name": "length",
      "outputs": [
        {
          "name": "",
          "type": "uint256"
        }
      ],
      "payable": false,
      "stateMutability": "view",
      "type": "function"
    },
    {
      "constant": true,
      "inputs": [
        {
          "name": "",
          "type": "uint256"
        }
      ],
      "name": "time",
      "outputs": [
        {
          "name": "",
          "type": "uint256"
        }
      ],
      "payable": false,
      "stateMutability": "view",
      "type": "function"
    },
    {
      "constant": true,
      "inputs": [],
      "name": "owner",
      "outputs": [
        {
          "name": "",
          "type": "address"
        }
      ],
      "payable": false,
      "stateMutability": "view",
      "type": "function"
    },
    {
      "constant": true,
      "inputs": [
        {
          "name": "",
          "type": "uint256"
        }
      ],
      "name": "temperature",
      "outputs": [
        {
          "name": "",
          "type": "int32"
        }
      ],
      "payable": false,
      "stateMutability": "view",
      "type": "function"
    },
    {
      "constant": false,
      "inputs": [
        {
          "name": "_temperature",
          "type": "int32"
        }
      ],
      "name": "addTemperature",
      "outputs": [
        {
          "name": "id",
          "type": "uint256"
        }
      ],
      "payable": false,
      "stateMutability": "nonpayable",
      "type": "function"
    },
    {
      "constant": false,
      "inputs": [
        {
          "name": "newOwner",
          "type": "address"
        }
      ],
      "name": "transferOwnership",
      "outputs": [],
      "payable": false,
      "stateMutability": "nonpayable",
      "type": "function"
    },
    {
      "inputs": [],
      "payable": false,
      "stateMutability": "nonpayable",
      "type": "constructor"
    },
    {
      "anonymous": false,
      "inputs": [
        {
          "indexed": false,
          "name": "_temperature",
          "type": "int32"
        }
      ],
      "name": "NewTemperature",
      "type": "event"
    }
  ],
  "bytecode": "0x6060604052341561000f57600080fd5b336000806101000a81548173ffffffffffffffffffffffffffffffffffffffff021916908373ffffffffffffffffffffffffffffffffffffffff16021790555060006003819055506104a6806100666000396000f300606060405260043610610083576000357c0100000000000000000000000000000000000000000000000000000000900463ffffffff1680630178fe3f146100885780631f7b6d32146100cc5780635ced7d40146100f55780638da5cb5b1461012c578063c57868dc14610181578063d6255f62146101be578063f2fde38b146101f8575b600080fd5b341561009357600080fd5b6100a96004808035906020019091905050610231565b604051808381526020018260030b60030b81526020019250505060405180910390f35b34156100d757600080fd5b6100df610272565b6040518082815260200191505060405180910390f35b341561010057600080fd5b6101166004808035906020019091905050610278565b6040518082815260200191505060405180910390f35b341561013757600080fd5b61013f610290565b604051808273ffffffffffffffffffffffffffffffffffffffff1673ffffffffffffffffffffffffffffffffffffffff16815260200191505060405180910390f35b341561018c57600080fd5b6101a260048080359060200190919050506102b5565b604051808260030b60030b815260200191505060405180910390f35b34156101c957600080fd5b6101e2600480803560030b9060200190919050506102d5565b6040518082815260200191505060405180910390f35b341561020357600080fd5b61022f600480803573ffffffffffffffffffffffffffffffffffffffff169060200190919050506103dc565b005b60008060016000848152602001908152602001600020546002600085815260200190815260200160002060009054906101000a900460030b91509150915091565b60035481565b60016020528060005260406000206000915090505481565b6000809054906101000a900473ffffffffffffffffffffffffffffffffffffffff1681565b60026020528060005260406000206000915054906101000a900460030b81565b60008060009054906101000a900473ffffffffffffffffffffffffffffffffffffffff1673ffffffffffffffffffffffffffffffffffffffff163373ffffffffffffffffffffffffffffffffffffffff1614151561033257600080fd5b600354905042600160006003548152602001908152602001600020819055508160026000600354815260200190815260200160002060006101000a81548163ffffffff021916908360030b63ffffffff1602179055506003600081548092919060010191905055507feae6950292408036bea24a0ee45d6073529359fbd90e214ce6a8553e943c99c282604051808260030b60030b815260200191505060405180910390a1919050565b6000809054906101000a900473ffffffffffffffffffffffffffffffffffffffff1673ffffffffffffffffffffffffffffffffffffffff163373ffffffffffffffffffffffffffffffffffffffff1614151561043757600080fd5b806000806101000a81548173ffffffffffffffffffffffffffffffffffffffff021916908373ffffffffffffffffffffffffffffffffffffffff160217905550505600a165627a7a72305820a354b99a2ca8cdf111e763559269293580c4b7f391230a318103a060396e187d0029",
  "source": "pragma solidity ^0.4.18;\n\nimport './ITempSensorable.sol';\nimport './owned.sol';\n\ncontract TempSensorContract is ITempSensorable, owned {\n\n    event NewTemperature(int32 _temperature);\n\n    mapping (uint256=>uint256) public time;\n    mapping (uint256=>int32) public temperature;\n\n    uint256 public length;\n\n    function TempSensorContract() public {\n        length = 0;\n    }\n\n    function addTemperature(int32 _temperature) public onlyOwner returns (uint id) {\n        id = length;\n        time[length] = now;\n        temperature[length] = _temperature;\n        length++;\n        NewTemperature(_temperature);\n    }\n    \n    function getData(uint256 id) constant public returns (uint256, int32){\n        return (time[id], temperature[id]);\n    }\n}",
  "sourcePath": "/Users/a/insurtech/truffle/contracts/TempSensorContract.sol",
  "compiler": {
    "name": "solc",
    "version": "0.4.18+commit.9cf6e910.Emscripten.clang"
  },
  "schemaVersion": "1.0.1",
  "updatedAt": "2018-01-26T19:24:29.164Z"
}